:100000000C9466000C948E000C948E000C948E0060
:100010000C948E000C948E000C948E000C948E0028
:100020000C948E000C948E000C948E000C948E0018
:100030000C948E000C948E000C948E000C948E0008
:100040000C94E4130C948E000C94FC160C942E1754
:100050000C948E000C948E000C948E000C948E00E8
:100060000C948E000C948E00000000080002010029
:100070000003040700000000000000000102040863
:100080001020408001020408102001020408102002
:10009000040404040404040402020202020203032E
:1000A0000303030300000000250028002B000000CC
:1000B0000000240027002A002401DD023603F00698
:1000C000D108670A3D0C5E170C183A0111241FBEB7
:1000D000CFEFD8E0DEBFCDBF12E0A0E0B1E0ECEAA8
:1000E000F1E402C005900D92AE38B107D9F723E0D4
:1000F000AEE8B2E001C01D92A73DB207E1F710E003
:10010000CAECD0E004C02297FE010E94371EC83B13
:10011000D107C9F70E941C180C94C9200C94000048
:100120000F931F93CF93DF93CDB7DEB762970FB6D0
:10013000F894DEBF0FBECDBF40ED57E060E070E049
:1001400080EF92E00E944A1320E835E240E050E060
:1001500060E373E080EF92E00E945D1380EF92E035
:100160000E9447136EE171E0809121039091220378
:100170000E9477186AE070E080E090E00E945D14D1
:1001800041E060E080EF92E00E94C8136AE071E015
:10019000CE0101960E94F1176EE071E0CE01079644
:1001A0000E94F11762E171E0CE010D960E94F117F5
:1001B0008E010F5F1F4F9E01295F3F4FAE01435FCE
:1001C0005F4F66E171E082EB92E00E946B0626E0F1
:1001D00040E855E260E070E080E393E00E949A1608
:1001E00062960FB6F894DEBF0FBECDBFDF91CF9100
:1001F0001F910F91089520E030E040EA50E40E9402
:10020000AC1D20E030E048EC52E40E945D1CAB01E4
:10021000BC014093900250939102609392027093BC
:10022000930222E030E080E393E00E944A1A60915A
:1002300090027091910280919202909193020E949B
:10024000C51C8EE00C94C0140F9300E020E040E049
:1002500060E080EA92E00E94E51760E570E08AE9DC
:1002600092E00E94360960E272E084E992E00F9128
:100270000C94CA1A84E992E00C945C1AFF920F93D2
:100280001F93CF93DF93CDB7DEB7AB970FB6F8943C
:10029000DEBF0FBECDBF6AE972E0CE0101960E94BB
:1002A000FA09CE0101960E942307882309F479C137
:1002B000CE0101960E94AD08882309F472C1CE01D7
:1002C00001960E945007892B99F3CE0101960E9456
:1002D0005907182F20919802309199022E3131053B
:1002E00028F4682F84E992E00E94441B1A3001F739
:1002F00060E371E0CE0101960E94961860E471E01F
:10030000CE0101960E949618CE0101960E94801897
:1003100068E571E0CE0101960E9477186FE571E003
:10032000CE0101960E94961864E771E0CE01019615
:100330000E94961864E972E0CE0101960E94691845
:100340006AE871E0CE0101960E94961860E272E0C0
:10035000CE0186960E94CA1A60E272E0CE018096B3
:100360000E94CA1A60E272E0CE014A960E94CA1A3E
:1003700061E971E0CE010E960E94CA1ABE01625F69
:100380007F4F84E992E00E94A01B8C01CE010E9663
:100390000E945C1A101611060CF0E6C061E971E0CB
:1003A000CE010E960E94CA1ABE01625F7F4F84E999
:1003B00092E00E94A01B182FCE010E960E945C1A9C
:1003C00065E971E0CE010E960E94CA1ABE01625F15
:1003D0007F4F84E992E00E94A01B082FCE010E9669
:1003E0000E945C1A202F332727FD30951D5F412F77
:1003F000552747FD509564E972E0CE010E960E94A4
:10040000A41BBE01625F7F4FCE0180960E94E01A5E
:10041000CE010E960E945C1A66E971E0CE010E963E
:100420000E94CA1ABE01625F7F4F84E992E00E9477
:10043000A01B082FCE010E960E945C1A0D5F11279B
:1004400007FD109568E871E0CE010E960E94CA1A69
:10045000A801BE01625F7F4F84E992E00E94841B85
:10046000F82ECE010E960E945C1A2F2D332727FD01
:100470003095A80164E972E0CE010E960E94A41B9B
:10048000BE01625F7F4FCE014A960E94E01ACE0104
:100490000E960E945C1ABE01605E7F4FCE014496AC
:1004A0000E94F71A6AE971E0CE0144960E946A1B25
:1004B000BE01665E7F4F0E94571BBC01CE010E96A7
:1004C0000E94F71ABE01625F7F4FCE0186960E949E
:1004D000E01ACE010E960E945C1ACE0144960E944C
:1004E0005C1ABE016A5D7F4F80E393E00E9484182E
:1004F000CE014A960E94E91B70938F0260938E0290
:10050000882777FD8095982F0E94F81C0E94FB0099
:100510006CE971E0CE0101960E949618BE01605E02
:100520007F4FCE0101960E9469186AE871E0CE0102
:1005300001960E94961861EA71E0CE0101960E9430
:100540009618BE01665E7F4FCE0101960E94691823
:100550006AE871E0CE0101960E94961868EA71E09F
:10056000CE0101960E94961860EB71E0CE010196D3
:100570000E94961860E272E084E992E00E94001BFB
:10058000CE0101960E947308CE014A960E945C1A21
:10059000CE0180960E945C1ACE0186960E945C1A5B
:1005A00087CEAB960FB6F894DEBF0FBECDBFDF91FE
:1005B000CF911F910F91FF9008950F9300E020E0DD
:1005C00040E060E086EA92E00E94E5170F9108950E
:1005D000FB014281538164817581FC014283538315
:1005E00064837583178216820895CF93FB018191EE
:1005F0008111FDCFFB0180E090E020E030E0CAE017
:100600006191662309F12430310564F56E3271F48D
:100610008F3F910509F034F5DA01A20FB31F12964E
:100620008C932F5F3F4F80E090E0EACFDC01CA9FC0
:10063000C001CB9F900D1124772767FD7095605303
:100640007109860F971FDCCF8F3F910509F054F495
:10065000243031053CF4FA01E20FF31F828381E07C
:1006600090E002C080E090E0CF9108950F9300E009
:1006700020E040E060E08CEA92E00E94E5170F91F4
:100680000895AF92BF92CF92DF92EF92FF920F93B5
:100690001F93CF93DF9300D01F92CDB7DEB76C01CD
:1006A0007B010E942E14F601778366838601085F22
:1006B0001F4FB6016A5F7F4F42E050E0C8010E94C1
:1006C000DA0A81E090E09A83898342E050E0BE013B
:1006D0006F5F7F4FC8010E94DA0A80E091E09A8341
:1006E000898342E050E0BE016F5F7F4FC8010E94E6
:1006F000DA0A1A82198242E050E0BE016F5F7F4F32
:10070000C8010E94DA0A42E050E0BE016F5F7F4FED
:10071000C8010E94DA0A42E050E0BE016F5F7F4FDD
:10072000C8010E94DA0A6701F6018081882311F16D
:10073000F7016F018191811115C05601AE18BF08F4
:100740001A141B0494F4AB8241E050E0BE016D5FCB
:100750007F4FC8010E94DA0AA501B701C8010E94B3
:10076000DA0A03C08E3229F7E8CF7601FFEFEF1ADD
:10077000FF0ADACF1B8241E050E0BE016D5F7F4F80
:10078000C8010E94DA0AE12CFF24F394FA82E9827C
:1007900042E050E0BE016F5F7F4FC8010E94DA0A5D
:1007A000FA82E98242E050E0BE016F5F7F4FC801EC
:1007B0000E94DA0A81E090E00F900F900F90DF9195
:1007C000CF911F910F91FF90EF90DF90CF90BF904E
:1007D000AF9008954F925F926F927F928F929F9207
:1007E000AF92BF92CF92DF92EF92FF920F931F933F
:1007F000CF93DF93CDB7DEB763970FB6F894DEBF24
:100800000FBECDBF7C015B016A010E942E142B013B
:100810003C018701085F1F4F4501A12CB12CC80185
:100820000E947A0B1816190694F00E942E1464196F
:1008300075098609970986169706A806B906D0F0A5
:1008400062E370E080E090E00E945D14E8CFF70181
:100850004281538164817581818D928DA38DB48D88
:10086000481759076A077B0741F4858D968DC59710
:1008700021F406C08FEF9FEFF9C08EEF9FEFF6C017
:10088000C8010E948D0A0C970CF4EEC04CE050E0B9
:10089000BE016F5F7F4FC8010E94170B8B819C8147
:1008A0009827892798279A8B898BF701468157814A
:1008B00029813A814217530711F497FD06C0C801F8
:1008C0000E94A70A8CEF9FEFD1C08F709270892B86
:1008D00031F0C8010E94A70A8BEF9FEFC7C0AF801D
:1008E000B884BA24AB24BA24A114B10419F0E12CC1
:1008F000F12C23C0C8010E94A70A8AEF9FEFB6C05F
:1009000041E050E0BE01635F7F4FC8010E94170BBA
:100910008D8581111BC08D858111F2CFC8010E9488
:10092000EE0AC8010E94EE0AC8010E94EE0AC80140
:100930000E94EE0AFFEFEF1AFF0A8D819E81982731
:1009400089279827E816F906D8F20AC08D859FEF07
:10095000980F9D878823F9F2C8010E94EE0AF6CF0E
:10096000E12CF12C41E050E0BE016D5E7F4FC801EB
:100970000E94170B8B89982F907C61F4882371F06B
:100980008B899FEF980F9B8B882341F0C8010E94B1
:10099000EE0AF6CFC8010E94EE0A1B8A8B898111EC
:1009A000E1CF42E050E0BE01615F7F4FC8010E948D
:1009B000170B42E050E0BE01635F7F4FC8010E9409
:1009C000170BC8010E94EE0AC8010E94EE0AC80176
:1009D0000E94EE0AC8010E94EE0A42E050E0BE0109
:1009E0006F5E7F4FC8010E94170B8F859889811514
:1009F000914029F48D859E858115914019F0812CB7
:100A0000912C16C089899A898115944031F0C801CA
:100A10000E94A70A87EF9FEF29C0B6016E5F7F4F44
:100A200044E050E0C8010E94170B81E090E01EC036
:100A300089899A899827892798278816990638F4EA
:100A4000C8010E94EE0A2FEF821A920AF1CF8FEFAF
:100A5000E81AF80AEA14FB0409F084CFC8010E94DE
:100A6000A70A86EF9FEF02C08DEF9FEF63960FB648
:100A7000F894DEBF0FBECDBFDF91CF911F910F91D4
:100A8000FF90EF90DF90CF90BF90AF909F908F90AE
:100A90007F906F905F904F9008958F929F92AF924A
:100AA000BF92CF92DF92EF92FF920F931F93CF935B
:100AB000DF9300D000D000D0CDB7DEB78C015B0152
:100AC0006A010E94F5024C01009709F05DC0F8012F
:100AD00042815381648175818091AE029091AF0211
:100AE000A091B002B091B102481759076A077B077D
:100AF00009F44EC00E942E147801F8E0EF0EF11CAC
:100B00006F7077277C5FC7010E944D0B813009F021
:100B100043C08DE792E09A838983F80182819381B3
:100B2000A481B5818B839C83AD83BE8345E350E074
:100B3000BE016F5F7F4FC7010E94CE0A892B19F457
:100B4000812C912C1DC0B501C8010E944103892B45
:100B5000B9F3C7010E94D60A892B91F333E0A32E83
:100B6000B12CA60168E873E1C8010E94EA034C01B8
:100B7000F1E0AF1AB10821F08F3F2FEF920789F310
:100B8000C7010E94B90A08C088248394912C04C02C
:100B90009EEF892E99249A94C40126960FB6F89454
:100BA000DEBF0FBECDBFDF91CF911F910F91FF90A0
:100BB000EF90DF90CF90BF90AF909F908F9008956F
:100BC0002091EE02222399F03FB7F8942091EE0293
:100BD000213059F42DB32093EC024DB32091ED0256
:100BE000209524232DBB3FBF02C03093EC028CBD67
:100BF0009DBD08958091EE02882361F09FB7F8941F
:100C00002091EE028091EC02213019F48DBB9FBF40
:100C100008958FBF089544E050E0BC0181E090E06A
:100C20000C94E01044E050E0BC0185E090E00C94AE
:100C3000E01044E050E0BC018FE090E00C94E01044
:100C40008F929F92AF92BF92CF92DF92EF92FF92DC
:100C50000F931F93CF93DF9300D0CDB7DEB74C0136
:100C60006A0159018CED92E069837A830E947810C1
:100C700080E590E00E94E00546E050E069817A81DD
:100C800089E090E00E94E010C60102960E941906D9
:100C9000C80102960E940B06C70102960E94120626
:100CA0000E94FA05F5014281538164817581F40146
:100CB00042835383648375830F900F90DF91CF91AC
:100CC0001F910F91FF90EF90DF90CF90BF90AF906A
:100CD0009F908F9008956F927F928F929F92AF9284
:100CE000BF92CF92DF92EF92FF920F931F93CF9319
:100CF000DF93CDB7DEB76E970FB6F894DEBF0FBEA9
:100D0000CDBF6C015B017A014901380100E02FEF92
:100D10004FEF6FEFCE0149960E94E5172DE732E0C5
:100D20003A8329838B8D9C8DAD8DBE8D8B839C8367
:100D3000AD83BE8338872F83F30182819381A481A1
:100D4000B58189879A87AB87BC873E872D87F40159
:100D500082819381A481B5818F87988BA98BBA8B6F
:100D60003C8B2B8BF70142815381648175814D8BC4
:100D70005E8B6F8B788FCE0101967C018E01095FAF
:100D80001F4F9E01235F3F4FAE014D5E5F4FB50188
:100D9000C6010E9420066E960FB6F894DEBF0FBE05
:100DA000CDBFDF91CF911F910F91FF90EF90DF901A
:100DB000CF90BF90AF909F908F907F906F9008954D
:100DC0002DE732E0FC0131832083FB014281538116
:100DD00064817581FC014283538364837583089524
:100DE0000F9300E020E040E060E082EC92E00E949F
:100DF000E51782EB92E00F910C94DB1781E08627D8
:100E00000895862F0895DC01ED91FC91048CF58DF9
:100E1000E02D099591E089270895CF93DF931F92E4
:100E2000CDB7DEB76983DC01ED91FC910280F381DF
:100E3000E02D41E050E0BE016F5F7F4F09950F90BC
:100E4000DF91CF91089521E0FC018485843009F47D
:100E500020E0822F0895FC019485FB01848598137E
:100E600003C081E0943009F480E008950F931F934C
:100E7000CF93DF93EC018A018C85843021F00E94AE
:100E80001A0E892B39F481E090E09B838A8380E0FD
:100E900090E001C0C801DF91CF911F910F9108959B
:100EA000FC018485843011F00C94110F80E090E0F7
:100EB0000895CF93DF931F92CDB7DEB741E050E0A6
:100EC000BE016F5F7F4FFC0184850E94B10E181632
:100ED00019061CF4898190E002C08FEF9FEF0F90FC
:100EE000DF91CF910895FC0184850C94B10E0F938E
:100EF0001F93CF93DF931F92CDB7DEB78C01DC0138
:100F0000ED91FC910480F581E02D0995892B51F03C
:100F1000BE016F5F7F4FF80184850E943C0F89817D
:100F200090E002C08FEF9FEF0F90DF91CF911F9164
:100F30000F910895FC0184850C946B0FCF92DF9282
:100F4000EF92FF920F931F93CF93DF93CDB7DEB74E
:100F5000AF970FB6F894DEBF0FBECDBF7C018B01FB
:100F60006A01CE0101960E94DB17CE0109960E940C
:100F7000CA0BCE018A960E94DB1762EB72E0CE01AB
:100F800084960E94E006BE016C5D7F4FCE01019603
:100F90000E94E802AE01465D5F4FB801CE010196A6
:100FA0000E944D0581309105C1F4D701ED91FC916E
:100FB0000484F585E02D8DE792E09DA38CA30CA51C
:100FC0001DA52EA53FA50EA31FA328A739A7A601DF
:100FD000BE016C5D7F4FC7010995AF960FB6F894BF
:100FE000DEBF0FBECDBFDF91CF911F910F91FF905C
:100FF000EF90DF90CF900895FC01262F138212828C
:1010000048EE53E060E070E0448355836683778365
:1010100083EC91E09183808324870895FC0184858B
:10102000843011F00C94C40C80E00895DF92EF92AC
:10103000FF920F931F93CF93DF93EC017B018A0103
:101040008C85843009F045C0D12C8D2D0E94C40CB4
:10105000811102C0DC8607C08B7F8831D9F3D3941D
:1010600084E0D812F2CF8C85843099F120911C0154
:1010700030911D012F5F3F4F11F420E030EC309391
:101080001D0120931C0140911C0150911D0120E085
:1010900061E00E94160DB7016E5F7F4FA8018C853D
:1010A0000E949C0D811103C084E08C8712C0CE0188
:1010B0000E940E08873151F061E070E080E090E01E
:1010C0000E945D14CE010E940E08ECCF81E090E0FA
:1010D00002C080E090E0DF91CF911F910F91FF90CF
:1010E000EF90DF900895CF92DF92EF92FF92CF932F
:1010F000DF93EC018C85843049F10E94F40D0E944D
:101100002E146B017C01CE010E940E088823A1F0F1
:1011100061E070E080E090E00E945D140E942E1477
:101120006C197D098E099F09683E73408105910500
:1011300050F38C850E94EC0CEC85F0E0EE0FFF1F65
:10114000E654FD4F1182108284E08C87DF91CF91AD
:10115000FF90EF90DF90CF900895CF93DF93EC0155
:101160008C858430D1F0CE010E940E088431A9F024
:10117000882399F0883189F08C3169F4E881F9810C
:101180000480F581E02DCE01099521E0892B09F439
:1011900020E0822F03C081E001C080E0DF91CF9189
:1011A00008950F9300E020E040E060E088EC92E0DA
:1011B0000E94E5170F910895CF93DF931F92CDB74B
:1011C000DEB76983DC01ED91FC910280F381E02DB3
:1011D00041E050E0BE016F5F7F4F09950F90DF91B6
:1011E000CF910895EF92FF920F931F93CF93DF93C8
:1011F000CDB7DEB72D970FB6F894DEBF0FBECDBFCB
:101200007C0100E010E0602FCE0101960E94FC07F7
:10121000CE0101960E940E08811116C0F70144818B
:10122000558120E061E0802F0E94160D802F0E94E2
:101230006A0DF70184819581F801EE0FFF1FE654D6
:10124000FD4F9183808305C00F5F1F4F0430110550
:10125000D1F62D960FB6F894DEBF0FBECDBFDF914D
:10126000CF911F910F91FF90EF900895FC01138291
:10127000128287EE91E09183808375836483089561
:10128000BF92CF92DF92EF92FF920F931F93CF9373
:10129000DF93CDB7DEB72D970FB6F894DEBF0FBE44
:1012A000CDBF8C014AEBC42E42E0D42EB12CE12CF0
:1012B000F12C6B2DCE0101960E94FC07D6012D91D9
:1012C0003D916D01F8018481958128173907B1F4AA
:1012D000CE0101960E940E08843169F0CE0101967C
:1012E0000E940E088C3151F4CE0101960E945007E5
:1012F000892B99F003C0EE24E394F12CB394F4E02D
:10130000BF12D7CFEF2871F4D801ED91FC91048082
:10131000F581E02DC801099505C0CE0101960E9416
:101320007308ECCF2D960FB6F894DEBF0FBECDBF7D
:10133000DF91CF911F910F91FF90EF90DF90CF90B1
:10134000BF9008957F928F929F92AF92BF92CF925B
:10135000DF92EF92FF920F931F93CF93DF93CDB75E
:10136000DEB72D970FB6F894DEBF0FBECDBF6C0170
:101370005B014A010E9440095AEBE52E52E0F52E2E
:10138000712C00E010E0672DCE0101960E94FC0751
:10139000F701219131917F01F60184819581281710
:1013A000390731F4CE0101960E940E088731C9F049
:1013B0007394F4E07F12E7CFC8012D960FB6F8942E
:1013C000DEBF0FBECDBFDF91CF911F910F91FF9078
:1013D000EF90DF90CF90BF90AF909F908F907F90D5
:1013E0000895A401B501CE0101960E943607080FA9
:1013F000191FDECFBF92CF92DF92EF92FF920F9331
:101400001F93CF93DF93CDB7DEB72D970FB6F89428
:10141000DEBF0FBECDBF8C016B01CB010E94400926
:101420006AEBE62E62E0F62EB12C6B2DCE01019612
:101430000E94FC07F701219131917F01F60184811F
:1014400095812817390751F5CE0101960E940E08A3
:10145000873111F08C3111F5CE0101960E945007B1
:10146000892BE1F08B819C81F801938382838D81AC
:101470009E81AF81B88584839583A683B783498590
:101480005A856B857C85408751876287738783EC9B
:1014900091E0918380838D85848708C0B394F4E0C4
:1014A000BF12C3CF64E0C8010E94FC07C8012D969B
:1014B0000FB6F894DEBF0FBECDBFDF91CF911F9165
:1014C0000F91FF90EF90DF90CF90BF9008950F9312
:1014D00000E020E040E060E08EEC92E00E94E51742
:1014E0000F910895DC01ED91FC91008CF18DE02DC0
:1014F00009942DE732E0FC0131832083FB0141890F
:10150000528963897489FC014283538364837583A0
:101510000895FC01858996890895FC01818D928D3D
:101520000895CF93DF931F92CDB7DEB76983DC01B7
:10153000ED91FC910280F381E02D41E050E0BE018D
:101540006F5F7F4F09950F90DF91CF910895CF93F3
:10155000DF93EC01898D9A8D892B41F0E881F98127
:101560000680F781E02DCE010995F4CFDF91CF9170
:101570000895CF93DF93EC018C85843061F00E9455
:10158000EC0CEC85F0E0EE0FFF1FE654FD4F1182EE
:10159000108284E08C87DF91CF910895FC01108E3A
:1015A000178A6E5F7F4F84850C94B30FFC0184858E
:1015B0000C94F90FCF93DF93EC019A018F89988DEA
:1015C000AB01BC018C850E946C0F2F89388D280FD0
:1015D000391F388F2F8BDF91CF9108950F931F9371
:1015E000CF93DF931F92CDB7DEB78C01FC01818DC5
:1015F000928D892B59F041E050E0BE016F5F7F4F23
:1016000084850E94B10E181619061CF08FEF9FEF0B
:1016100008C0F801818D928D0197928F818F898109
:1016200090E00F90DF91CF911F910F910895CF938C
:10163000DF93EC01898D9A8D009719F48FEF9FEF5E
:1016400010C04817590708F0AC018C850E94B10EF4
:10165000181619069CF7298D3A8D281B390B3A8FDD
:10166000298FDF91CF910895CF93DF931F92CDB74C
:10167000DEB7FC01218D328D232B49F0BE016F5F57
:101680007F4F84850E943C0F898190E002C08FEFDC
:101690009FEF0F90DF91CF910895FF920F931F93CB
:1016A000CF93DF93EC018B018C858430E1F4F12C36
:1016B0008F2D0E94C40C811102C0FC8606C08831A7
:1016C000E1F3F39484E0F812F3CF8C85843059F081
:1016D0001E870D871A8E198E20E0A80162E00E94F5
:1016E000160D81E001C080E0DF91CF911F910F9135
:1016F000FF9008950F931F93CF93DF93CDB7DEB77D
:1017000028970FB6F894DEBF0FBECDBF8C01DC0169
:10171000ED91FC910284F385E02D0995F801848513
:101720000E94110F1816190644F548E050E0BE015A
:101730006F5F7F4FD8011C968C910E94B10E1816D6
:101740001906ECF4BE016F5F7F4FC8010F960E942F
:1017500001188D8190E0982F88272E81820F911D8E
:10176000F801968B858B8F8190E0982F88272885AC
:10177000820F911D928F818F02C080E090E02896A9
:101780000FB6F894DEBF0FBECDBFDF91CF911F9192
:101790000F910895FC011382128248EE53E060E03D
:1017A00070E0448355836683778381EF91E0918372
:1017B000808384E08487CF010F960C94DB17CF924F
:1017C000DF92EF92FF920F931F93CF93DF93CDB7EA
:1017D000DEB7AF970FB6F894DEBF0FBECDBF7C016A
:1017E0008B016A01CE0101960E94DB17CE0109969A
:1017F0000E94CA0BCE018A960E94DB1762EB72E050
:10180000CE0184960E94E006BE016C5D7F4FCE0142
:1018100001960E94E802AE01465D5F4FB801CE011D
:1018200001960E944D0581309105C1F4D701ED91DB
:10183000FC910088F189E02D8DE792E09DA38CA3B7
:101840000CA51DA52EA53FA50EA31FA328A739A74C
:10185000A601BE016C5D7F4FC7010995AF960FB61B
:10186000F894DEBF0FBECDBFDF91CF911F910F91D6
:10187000FF90EF90DF90CF9008950F9300E020E06D
:1018800040E060E084ED92E00E94E5170F9108953A
:10189000CF92DF92EF92FF920F9330E0C12CF2E1F2
:1018A000DF2EFAE7EF2EF12C4C155D056E057F0556
:1018B00040F4F694E794D794C7943F5F3630A1F78D
:1018C00037E041E04327211102C050E701C050E555
:1018D000242F30E03595279523700C70202B252B75
:1018E000FC012083417041830F91FF90EF90DF90C6
:1018F000CF90089590E0982F882744E050E0845FCF
:101900009B4F0C94E010282F30E02C5F3F4F922F1C
:101910008827860F971F0C940F1162E070E00C94DB
:10192000830CFB01282F30E02C5F3F4F922F88273C
:10193000642F8E0F9F1F0C945610CF93DF93C82FE8
:10194000D62F472F64E070E00E94910C4D2F65E088
:1019500070E08C2FDF91CF910C94910C462F62E0B8
:1019600070E00C94910CCF93DF93C82FD62F472FA4
:1019700060E170E00E94910C4D2F61E170E08C2FCE
:10198000DF91CF910C94910C0F931F93CF93DF9322
:1019900000D01F92CDB7DEB7182F00E021E040E065
:1019A00059E06DE370E0CE0101960E94480C8981F8
:1019B0009A810E94E00563E070E0812F0E94830C11
:1019C0008B830E94FA058B810F900F900F90DF910F
:1019D000CF911F910F9108950F931F93CF93DF9392
:1019E00000D0CDB7DEB7182F00E021E040E059E08D
:1019F0006DE370E0CE0101960E94480C89819A81C6
:101A00000E94E00540E150E0612F8CED92E00E94E1
:101A1000D9126FEF812F0E94AE0C0E94FA050F9031
:101A20000F90DF91CF911F910F910895CF92DF9288
:101A3000EF92FF920F931F93CF93DF9300D0CDB718
:101A4000DEB7182FD62E7A01C22E8FEF860F853083
:101A5000A8F5812F0E94EC0C00E021E040E059E065
:101A60006DE370E0CE0101960E94480C89819A8155
:101A70000E94E0054D2D4C2960E070E0812F0E940E
:101A8000910CE114F10411F0B7010AC06091DA027F
:101A90007091DB026F5F7F4F7093DB026093DA021D
:101AA000812F0E949D0C41E050E0612F8CED92E06F
:101AB0000E94D9120E94FA0581E001C080E00F90D7
:101AC0000F90DF91CF911F910F91FF90EF90DF90DA
:101AD000CF9008950F931F93CF93DF9300D0CDB78E
:101AE000DEB7182F00E021E040E059E06DE370E040
:101AF000CE0101960E94480C89819A810E94E005DE
:101B000063E070E0812F0E94830C833121F00E94FA
:101B1000FA0580E00AC042E050E0612F8CED92E0CF
:101B20000E94D9120E94FA0581E00F900F90DF9178
:101B3000CF911F910F910895CF92DF92EF92FF9274
:101B40000F931F93CF93DF9300D0CDB7DEB7182F3D
:101B50007B016A01FB0180818F3F51F481818F3FBE
:101B600099F482818F3F81F483818F3F69F430C083
:101B700081110AC0FB018181811106C0828181111E
:101B800003C08381882321F1C114D10409F100E04D
:101B900021E040E059E06DE370E0CE0101960E9443
:101BA000480C89819A810E94E005B701812F0E942B
:101BB0007A0CB601812F0E94B30C44E050E0612FF3
:101BC0008CED92E00E94D9120E94FA0581E001C0DA
:101BD00080E00F900F90DF91CF911F910F91FF90B8
:101BE000EF90DF90CF9008950F931F93CF93DF93E3
:101BF00000D0CDB7DEB7182F00E021E040E059E07B
:101C00006DE370E0CE0101960E94480C89819A81B3
:101C10000E94E00548E050E0612F8CED92E00E94C8
:101C2000D9120E94FA050F900F90DF91CF911F916A
:101C30000F910895BF92CF92DF92EF92FF920F9390
:101C40001F93CF93DF9300D01F92CDB7DEB7B82E8E
:101C50006B017A01413088E0580718F0E12C98E0D8
:101C6000F92E00E021E040E059E06DE370E0CE01A4
:101C700001960E94480C89819A810E94E0056B2D93
:101C80008CED92E00E9447118C0163E070E08B2D97
:101C90000E94830C8B830E94FA058B81873111F09F
:101CA0008C3131F40E94E3130E151F05D0F202C0EF
:101CB000E12CF12C00E021E040E059E06DE370E020
:101CC000CE0101960E94480C89819A810E94E0050C
:101CD0009701A6016B2D8CED92E00E94061240E266
:101CE00050E06B2D8CED92E00E94D9128B2D0E945A
:101CF0008D0C84FD22C063E070E08B2D0E94830C6C
:101D0000811108C00E94FA058B2D0E94EC0C80E026
:101D100090E01AC00E94FA050E94E31300E021E05F
:101D200040E059E06DE370E0CE0101960E94480C5E
:101D300089819A810E94E005D9CF60E18B2D0E94B4
:101D4000AE0C0E94FA05C7010F900F900F90DF9123
:101D5000CF911F910F91FF90EF90DF90CF90BF90A8
:101D60000895AF92BF92CF92DF92EF92FF920F93BE
:101D70001F93CF93DF9300D0CDB7DEB7182F5B0151
:101D80006A0100E021E040E059E06DE370E0CE013F
:101D900001960E94480C89819A810E94E005612F7A
:101DA0008CED92E00E947B117C010097A1F463E02E
:101DB00070E0812F0E94830C843119F1882309F18E
:101DC00021E030E08C3111F420E030E0EE24FF24FB
:101DD000E21AF30A16C0C816D9060CF476011E14CE
:101DE0001F047CF400E09701A501612F8CED92E0C7
:101DF0000E94891240E450E0612F8CED92E00E9435
:101E0000D9120E94FA05C7010F900F90DF91CF9170
:101E10001F910F91FF90EF90DF90CF90BF90AF9008
:101E200008950F931F93CF93DF9300D000D0CDB7C9
:101E3000DEB7182F00E021E040E059E06DE370E0EC
:101E4000CE0101960E94480C89819A810E94E0058A
:101E5000612F8CED92E00E947B118B839C830E940A
:101E6000FA058B819C810F900F900F900F90DF915E
:101E7000CF911F910F910895EF92FF920F931F93AF
:101E8000CF93DF9300D0CDB7DEB7182F7B0100E0F2
:101E900021E040E059E06DE370E0CE0101960E9440
:101EA000480C89819A810E94E00501E021E030E040
:101EB000A701612F8CED92E00E9489120E94FA0521
:101EC00081E090E00F900F90DF91CF911F910F91E3
:101ED000FF90EF90089508959F92AF92BF92CF9296
:101EE000DF92EF92FF920F931F93CF93DF9300D077
:101EF000CDB7DEB7982E6B015A01790100E021E0E1
:101F000040E059E06DE370E0CE0101960E94480C7C
:101F100089819A810E94E005692D8CED92E00E94F2
:101F200047118E159F0530F4692D8CED92E00E94CB
:101F300047117C0187019501A601692D8CED92E086
:101F40000E9497110E94FA05C7010F900F90DF9130
:101F5000CF911F910F91FF90EF90DF90CF90BF90A6
:101F6000AF909F900895CF92DF92EF92FF920F93E0
:101F70001F93CF93DF9300D0CDB7DEB7182F7B012F
:101F80006A01FB018081811109C08181811106C034
:101F90008281811103C083818823F1F0C114D104AF
:101FA000D9F000E021E040E059E06DE370E0CE01BF
:101FB00001960E94480C89819A810E94E005B70130
:101FC000812F0E947A0CB601812F0E94B30C0E94CF
:101FD000FA0581E090E002C080E090E00F900F9061
:101FE000DF91CF911F910F91FF90EF90DF90CF90F5
:101FF00008950F931F93CF93DF9300D0CDB7DEB733
:10200000182F00E021E040E059E06DE370E0CE01E0
:1020100001960E94480C89819A810E94E00540E265
:1020200050E0612F8CED92E00E94D912812F0E9426
:102030008D0C84FD21C0812F0E948D0C83FF09C06F
:1020400068E1812F0E94AE0C0E94FA0580E090E0CA
:102050001BC00E94FA050E94E31300E021E040E06B
:1020600059E06DE370E0CE0101960E94480C898131
:102070009A810E94E005DACF60E1812F0E94AE0CC8
:102080000E94FA0581E090E00F900F90DF91CF91D0
:102090001F910F9108958EBD00000DB407FEFDCF76
:1020A0008EB508952A9808952A9A08951F93CF937C
:1020B000DF9300D0CDB7DEB7182F6A8399830E94D3
:1020C000521080EF0E944B109981892F0E944B1073
:1020D000812F0E944B106A81862F0E944B100E9414
:1020E000541081E00F900F90DF91CF911F910895D0
:1020F000CF93DF93EC016CE271E080E090E00E940E
:102100005D140E94E912229A8091EE02882399F0D0
:102110009FB7F8948091EE02813059F48DB380938B
:10212000EC022DB38091ED02809582238DBB9FBF81
:1021300002C09093EC0280E58CBD1DBC60E880E09D
:1021400090E00E94561065E58BE190E00E945610E9
:1021500065E58AE190E00E9456108091EE028823A6
:1021600061F09FB7F8942091EE028091EC0221304B
:1021700019F48DBB9FBF01C08FBF80E090E49983AD
:10218000888380E090E69987888780E098E49B8345
:102190008A8380E098E69B878A8780E090E59D832C
:1021A0008C8380E090E79D878C8780E098E59F8313
:1021B0008E8380E098E79F878E87DF91CF91089587
:1021C000CF92DF92EF92FF920F931F93CF93DF9303
:1021D000EC017A018B016C01C40ED51ECC15DD0516
:1021E000A1F00E94521080EF0E944B108D2F0E9490
:1021F0004B108C2F0E944B102196F80181918F017A
:102200000E944B100E945410E9CFC701DF91CF917B
:102210001F910F91FF90EF90DF90CF9008951F9343
:10222000CF93DF931F92CDB7DEB7182F99830E940B
:1022300052108FE00E944B109981892F0E944B1001
:10224000812F0E944B1080E00E944B1089830E94D6
:10225000541089810F90DF91CF911F9108951F93A2
:10226000CF93DF93182F60E270E00E94830CC82F99
:10227000D0E061E270E0812F0E94830CDC2FCC273C
:102280009E01282BC901DF91CF911F910895FF92E4
:102290000F931F93CF93DF93F62EC0E0D0E08F2DE6
:1022A0000E942F118C01009721F08F2D0E942F1179
:1022B000EC01C017D10799F7CE01DF91CF911F91A3
:1022C0000F91FF9008951F93CF93DF93182F66E22D
:1022D00070E00E94830CC82FD0E067E270E0812F8D
:1022E0000E94830CDC2FCC279E01282BC901DF9193
:1022F000CF911F910895FF920F931F93CF93DF9378
:10230000F62EC0E0D0E08F2D0E9463118C01009763
:1023100021F08F2D0E946311EC01C017D10799F7AE
:10232000CE01DF91CF911F910F91FF9008956F9291
:102330007F929F92AF92BF92CF92DF92EF92FF92E5
:102340000F931F93CF93DF931F92CDB7DEB7D82E95
:10235000962E3A01590164E270E0892D99830E941A
:10236000830CE82EF12C65E270E0892D0E94830C2D
:10237000FE2CEE24E82AE60CF71C970137706D2C32
:102380009981792E690C711C690C711CD301ED9136
:10239000FC91E20FF31FC901800F911F813098401B
:1023A000A0F0C12C48E0D42EC21AD30AA601B50170
:1023B000CF010E94E010A8014C195D09B5016C0D18
:1023C0007D1DF3018081918103C0A801B501CF017A
:1023D0000E94E010E00EF11E4F2D64E270E0892DA6
:1023E0000E94910C4E2D65E270E0892D0F90DF91D7
:1023F000CF911F910F91FF90EF90DF90CF90BF9002
:10240000AF909F907F906F900C94910C0F931F93BF
:1024100089019A0140E050E00E9497111F910F91AD
:102420000895CF92DF92EF92FF920F931F93CF9375
:10243000DF93EC017A018B016C01C40ED51ECC1523
:10244000DD05A9F00E9452108FE00E944B108D2FE5
:102450000E944B108C2F0E944B10219680E00E940E
:102460004B10F80181938F010E945410E8CFC701EF
:10247000DF91CF911F910F91FF90EF90DF90CF9060
:102480000895AF92BF92CF92DF92EF92FF920F9397
:102490001F93CF93DF9300D0CDB7DEB75A83498324
:1024A0005901E981FA81F7707C01E60EF11CE60E14
:1024B000F11CD70118968D919C9119978E0F9F1F33
:1024C00098012E0F3F1F2130384098F0C12C68E052
:1024D000D62ECE1ADF0AA601B5010E941112A8015C
:1024E0004C195D09B5016C0D7D1DF7018085918545
:1024F00002C0A801B5010F900F90DF91CF911F91FD
:102500000F91FF90EF90DF90CF90BF90AF900C9421
:1025100011128F929F92AF92BF92CF92DF92EF9261
:10252000FF920F931F93CF93DF936C01962E5A0166
:102530007901802E68E270E0892D0E94830CC82FFB
:10254000D0E069E270E0892D0E94830CDC2FCC275B
:10255000C82B87019501AE01692DC6010E94411269
:1025600081101AC0CE0DDF1D4D2F68E270E0892D5D
:102570000E94910C4C2F69E270E0892DDF91CF9180
:102580001F910F91FF90EF90DF90CF90BF90AF9091
:102590009F908F900C94910CDF91CF911F910F9190
:1025A000FF90EF90DF90CF90BF90AF909F908F9073
:1025B0000895CF93C62F61E070E08C2F0E94910C9C
:1025C00061E070E08C2F0E94830C8111F9CFCF91D4
:1025D0000895CF93CFB7F8948091EF02811127C06F
:1025E000EAE9F0E08491E6E8F0E09491E82FF0E089
:1025F000EE0FFF1FE255FF4FA591B4918C918923F7
:1026000021F461E08AE00E94811561E08AE00E9485
:1026100048158CB580618CBD8CB580648CBD61E043
:102620008DE00E94481561E08BE00E944815809182
:10263000EF028F5F8093EF02CFBFCF9108950F938A
:102640001F93CF93DF93EC01662359F00E942E1461
:1026500069837A838B839C83DF91CF911F910F9144
:1026600008950E942E1409811A812B813C81601BE0
:10267000710B820B930B623371058105910530F765
:1026800063E070E080E090E00E945D14EACF60E0DB
:102690000C941F13FC0113AA14AA15AA16AA1182DE
:1026A000128213821482411551056105710521F0D2
:1026B000CB01BA010C945D140895FB01BA01A90184
:1026C000DC01D296FC93EE93D19726E0CF010C94D7
:1026D0009A161F93CF93DF93EC01162F61E172E0FE
:1026E00089A99AA90E9477184AE050E0612F89A928
:1026F0009AA90E94581968E172E089A99AA90E94D2
:10270000771862E370E080E090E0DF91CF911F9155
:102710000C945D141F93CF93DF93EC01162F8D81E2
:10272000882389F189A99AA9DC01ED91FC910480A3
:10273000F581E02D0995892BA9F307C026373105CE
:1027400019F12835310509F41D8289A99AA9DC01FE
:10275000ED91FC910480F581E02D0995181619067C
:1027600094F489A99AA9DC01ED91FC910680F78186
:10277000E02D09959C01332723363105F9F6612FA9
:10278000CE010E94691383E6DF91CF911F910895D6
:102790000F931F93CF93DF931F92CDB7DEB78C01BA
:1027A000662349F081E0F801858360E0C801498330
:1027B0000E948A134981F80145830F90DF91CF91E0
:1027C0001F910F91089508951F920F920FB60F92C7
:1027D00011242F933F938F939F93AF93BF93809137
:1027E000280390912903A0912A03B0912B033091E3
:1027F000270323E0230F2D3720F40196A11DB11DDF
:1028000005C026E8230F0296A11DB11D20932703C2
:102810008093280390932903A0932A03B0932B035A
:1028200080912C0390912D03A0912E03B0912F0342
:102830000196A11DB11D80932C0390932D03A093AD
:102840002E03B0932F03BF91AF919F918F913F9132
:102850002F910F900FBE0F901F9018952FB7F894DF
:10286000609128037091290380912A0390912B0392
:102870002FBF08953FB7F89480912C0390912D03BA
:10288000A0912E03B0912F0326B5A89B05C02F3F22
:1028900019F00196A11DB11D3FBF6627782F892F22
:1028A0009A2F620F711D811D911D42E0660F771FE7
:1028B000881F991F4A95D1F70895CF92DF92EF9222
:1028C000FF92CF93DF936B017C010E943A14EB01DE
:1028D000C114D104E104F10489F00E94E3130E94C1
:1028E0003A146C1B7D0B683E734090F381E0C81A6C
:1028F000D108E108F108C851DC4FEACFDF91CF9150
:10290000FF90EF90DF90CF900895789484B5826027
:1029100084BD84B5816084BD85B5826085BD85B583
:10292000816085BDEEE6F0E0808181608083E1E832
:10293000F0E010828081826080838081816080836A
:10294000E0E8F0E0808181608083E1EBF0E080816D
:1029500084608083E0EBF0E0808181608083EAE73F
:10296000F0E08081846080838081826080838081C8
:10297000816080838081806880831092C100089587
:102980001F93CF93DF93182FEB0161E00E9448154E
:10299000209711F460E004C0CF3FD10539F461E025
:1029A000812FDF91CF911F910C948115E12FF0E0E1
:1029B000E859FF4FE491E330F9F048F4E130B9F021
:1029C000E230A1F584B5806284BDC8BD34C0E73073
:1029D000E9F0E83019F1E43049F580918000806237
:1029E00080938000D0938B00C0938A0024C084B56C
:1029F000806884BDC7BD1FC08091800080688093BF
:102A00008000D0938900C093880015C08091B000E9
:102A100080688093B000C093B3000DC08091B00077
:102A200080628093B000C093B40005C0C038D10567
:102A30000CF0B5CFAFCFDF91CF911F9108958330C8
:102A400081F028F4813099F08230A1F00895873028
:102A5000A9F08830B9F08430D1F4809180008F7D66
:102A600003C0809180008F7780938000089584B5A3
:102A70008F7702C084B58F7D84BD08958091B000AA
:102A80008F7703C08091B0008F7D8093B000089550
:102A9000CF93DF9390E0FC01E458FF4F2491FC01B9
:102AA000E057FF4F8491882349F190E0880F991FE8
:102AB000FC01E255FF4FA591B4918C559F4FFC014D
:102AC000C591D4919FB7611108C0F8948C9120955D
:102AD00082238C93888182230AC0623051F4F89457
:102AE0008C91322F309583238C938881822B88831D
:102AF00004C0F8948C91822B8C939FBFDF91CF916F
:102B000008950F931F93CF93DF931F92CDB7DEB736
:102B1000282F30E0F901E859FF4F8491F901E4587A
:102B2000FF4F1491F901E057FF4F04910023C9F0C2
:102B3000882321F069830E941F156981E02FF0E04E
:102B4000EE0FFF1FEC55FF4FA591B4919FB7F8947E
:102B50008C91611103C01095812301C0812B8C934E
:102B60009FBF0F90DF91CF911F910F910895FC01AE
:102B7000818D228D90E0805C9F4F821B91098F7325
:102B800099270895FC01918D828D981731F0828DDF
:102B9000E80FF11D858D90E008958FEF9FEF089568
:102BA000FC01918D828D981761F0828DDF01A80F55
:102BB000B11D5D968C91928D9F5F9F73928F90E077
:102BC00008958FEF9FEF089584E597E1892B49F0F1
:102BD00080E090E0892B29F00E94541781110C9419
:102BE00000000895FC01848DDF01A80FB11DA35AD8
:102BF000BF4F2C91848D90E001968F739927848F1D
:102C0000A689B7892C93A089B1898C9180648C9313
:102C1000938D848D981306C00288F389E02D8081FE
:102C20008F7D80830895CF93DF93EC01888D882377
:102C3000C9F0EA89FB89808185FD05C0A889B98929
:102C40008C9186FD0FC00FB607FCF5CF808185FF04
:102C5000F2CFA889B9898C9185FFEDCFCE010E9472
:102C6000F215E7CFDF91CF910895CF92DF92FF92D7
:102C70000F931F93CF93DF931F92CDB7DEB76C01F5
:102C800081E0D60158968C9358975B969C915B9700
:102C90005C968C915C97981307C05096ED91FC91CF
:102CA0005197808185FD2EC0F601038D10E00F5FE6
:102CB0001F4F0F731127F02EF601848DF81211C0EB
:102CC0000FB607FCF9CFD6015096ED91FC915197C4
:102CD000808185FFF1CFC60169830E94F215698169
:102CE000EBCF838DE80FF11DE35AFF4F6083D601D0
:102CF0005B960C935B975296ED91FC915397808174
:102D000080620CC0D6015696ED91FC915797608376
:102D10005096ED91FC91519780818064808381E091
:102D200090E00F90DF91CF911F910F91FF90DF9076
:102D3000CF900895BF92CF92DF92EF92FF92CF9300
:102D4000DF93EC016A017B01B22EE889F98982E008
:102D50008083411581EE580761057105A1F060E09F
:102D600079E08DE390E0A70196010E94131E2150A7
:102D700031094109510956954795379527952115F0
:102D800080E1380798F0E889F989108260E874E8F2
:102D90008EE190E0A70196010E94131E2150310997
:102DA000410951095695479537952795EC85FD853D
:102DB0003083EE85FF852083188EEC89FD89B082F3
:102DC000EA89FB89808180618083EA89FB8980812F
:102DD00088608083EA89FB89808180688083EA89B2
:102DE000FB8980818F7D8083DF91CF91FF90EF9071
:102DF000DF90CF90BF9008951F920F920FB60F9261
:102E000011242F938F939F93EF93FF93E0914003AF
:102E1000F09141038081E0914603F091470382FDE8
:102E200012C09081809149038F5F8F7320914A0374
:102E3000821751F0E0914903F0E0E05DFC4F958F7F
:102E40008093490301C08081FF91EF919F918F9101
:102E50002F910F900FBE0F901F9018951F920F92F9
:102E60000FB60F9211242F933F934F935F936F935D
:102E70007F938F939F93AF93BF93EF93FF9380E3E1
:102E800093E00E94F215FF91EF91BF91AF919F9156
:102E90008F917F916F915F914F913F912F910F9003
:102EA0000FBE0F901F90189580E393E00E94B71516
:102EB00021E0892B09F420E0822F0895109233033A
:102EC0001092320388EE93E0A0E0B0E080933403E8
:102ED00090933503A0933603B09337038DE692E0C9
:102EE000909331038093300385EC90E090933D0301
:102EF00080933C0384EC90E090933F0380933E03E7
:102F000080EC90E0909341038093400381EC90E04B
:102F1000909343038093420382EC90E090934503A7
:102F20008093440386EC90E090934703809346039C
:102F30001092490310924A0310924B0310924C03D3
:102F40000895AF92BF92CF92DF92EF92FF920F93CC
:102F50001F93CF93DF936C017B01C0E0D0E000E0D2
:102F600010E0F601EC0FFD1F4AE050E06281C7015E
:102F70000E9458195C016EE2C7010E9479188A0DFF
:102F80009B1D080F191F2196C330D10551F74AE048
:102F900050E0F6016581C7010E945819800F911F0A
:102FA000DF91CF911F910F91FF90EF90DF90CF9025
:102FB000BF90AF9008952DE732E0FC01318320836C
:102FC000128213821482158208950F93FC018DE7FB
:102FD00092E09183808362834383248305830F91EE
:102FE00008952DE732E0FC0131832083FB0140810D
:102FF000518162817381FC014283538364837583B1
:103000000895FB014081518162817381FC014283FB
:1030100053836483758308958DE792E09093CE0384
:103020008093CD031092CF031092D0031092D1035E
:103030001092D203089508950E9485140E941B18CF
:103040000E949000C4EED5E10E943E012097E1F37A
:103050000E94E415F9CFCF92DF92EF92FF920F9387
:103060001F93CF93DF936C017A01EB01E60EF71EFD
:1030700000E010E0CE15DF0561F06991D601ED9119
:10308000FC910190F081E02DC6010995080F191FF0
:10309000F1CFC801DF91CF911F910F91FF90EF9079
:1030A000DF90CF9008956115710581F0DB010D90DF
:1030B0000020E9F7AD0141505109461B570BDC01D7
:1030C000ED91FC910280F381E02D099480E090E085
:1030D0000895DC01ED91FC91DB0114964D915C911A
:1030E00015976D917C910280F381E02D09940C94E9
:1030F0005318DC01ED91FC910190F081E02D0994D1
:103100006EE172E00C9453180F931F93CF93DF93EB
:10311000EC010E9469188C01CE010E948018800F7A
:10312000911FDF91CF911F910F9108950F931F93DE
:10313000CF93DF93EC010E9453188C01CE010E94C3
:103140008018800F911FDF91CF911F910F910895EB
:103150008F929F92AF92BF92CF92DF92EF92FF92A7
:103160000F931F93CF93DF93CDB7DEB7A1970FB621
:10317000F894DEBF0FBECDBF7C01C42EE52FCB017E
:10318000D22E19A221E02D1510F02AE0D22E8E01A8
:103190000F5D1F4F8D2C912CA12CB12C6C2D7E2FEF
:1031A000A50194010E94131E8C2DD29E801911241A
:1031B000015011098A3014F4805D01C0895CF80166
:1031C0008083211531054105510521F0C22EE32FE1
:1031D000CA01E4CFB801C7010E945318A1960FB6E7
:1031E000F894DEBF0FBECDBFDF91CF911F910F913D
:1031F000FF90EF90DF90CF90BF90AF909F908F9017
:103200000895CF92DF92EF92FF920F931F93CF9387
:10321000DF93EC016A017B012115310579F4E88126
:10322000F9810190F081E02D642FDF91CF911F9102
:103230000F91FF90EF90DF90CF9009942A303105E5
:10324000E9F477FF1AC06DE20E9479188C014427D7
:103250005527BA014C195D096E097F092AE0CE0194
:103260000E94A818800F911FDF91CF911F910F919D
:10327000FF90EF90DF90CF9008952AE0B701A6016C
:10328000CE01DF91CF911F910F91FF90EF90DF90D2
:10329000CF900C94A8182115310541F4DC01ED9173
:1032A000FC910190F081E02D642F09940C94A818F2
:1032B0009A01462F50E060E070E00C944B194F9259
:1032C0005F926F927F928F929F92AF92BF92CF92B6
:1032D000DF92EF92FF920F931F93CF93DF93EC0156
:1032E0006A017B01B22E9A01AB01C701B6010E94AF
:1032F0000F1E882319F06FE772E027C026013701FF
:10330000E89477F82FEF3FEF4FE75FE7C301B20193
:103310000E940F1E81110DC02FEF3FEF4FE75FE7B7
:10332000C301B2010E94591C18161CF463E872E034
:103330000CC02FEF3FEF4FE75FE4C701B6010E94DB
:10334000A81D1816ACF467E872E0CE01DF91CF91AA
:103350001F910F91FF90EF90DF90CF90BF90AF90B3
:103360009F908F907F906F905F904F900C94531828
:103370002FEF3FEF4FE75FECC701B6010E94591CEA
:1033800087FDE1CF20E030E0A901C701B6010E942E
:10339000591C87FF0AC06DE2CE010E9479188C018A
:1033A000F7FAF094F7F8F09402C000E010E0A12CD6
:1033B00060E070E080E09FE3AB1441F020E030E09B
:1033C00040E251E40E945D1CA394F6CF9B01AC0146
:1033D000C701B6010E94F51B6B017C010E94CA1C4B
:1033E0002B013C010E94F61C9B01AC01C701B601F8
:1033F0000E94F41B6B017C012AE0B301A201CE0103
:103400000E94A818080F191FBB2039F06BE872E062
:10341000CE010E945318080F191F7B2C772041F111
:1034200020E030E040E251E4C701B6010E94AC1D4B
:103430006B017C010E94C51C4B01AA2497FCA0943F
:10344000BA2C2AE030E0B501A401CE010E94011996
:10345000080F191FC501B4010E94F81C9B01AC01A3
:10346000C701B6010E94F41B6B017C017A94D6CF90
:10347000C801DF91CF911F910F91FF90EF90DF90E6
:10348000CF90BF90AF909F908F907F906F905F9004
:103490004F9008950F931F93CF93DF93EC010E94F9
:1034A0005F198C01CE010E948018800F911FDF915F
:1034B000CF911F910F910895FC01808191810C940F
:1034C000D31ECF93DF93EC0188819981009711F08F
:1034D0000E94D31E198218821D821C821B821A82AE
:1034E000DF91CF9108950F931F93CF93DF93EC015A
:1034F0008B016F5F7F4F888199810E94621F0097C7
:1035000031F0998388831B830A8381E001C080E0C6
:10351000DF91CF911F910F910895CF93DF93EC012D
:1035200088819981892B29F08A819B818617970749
:1035300060F4CE010E94731A882341F08C819D8132
:10354000892B19F4E881F981108281E0DF91CF9114
:103550000895EF92FF920F931F93CF93DF93EC01A7
:103560007B018A01BA010E948D1A811104C0CE012B
:103570000E94611A07C01D830C83B701888199815D
:103580000E945C20CE01DF91CF911F910F91FF909F
:10359000EF900895FC01118210821382128215822D
:1035A00014826115710559F0FB0101900020E9F7C3
:1035B000AF0141505109461B570B0C94A91A0895AD
:1035C000CF93DF93EC01FB018617970761F06081D1
:1035D00071816115710529F0448155810E94A91AF4
:1035E00002C00E94611ACE01DF91CF910895FC01C3
:1035F0001182108213821282158214820C94E01AB6
:10360000CF93DF93EC016115710561F0FB0101902F
:103610000020E9F7AF0141505109461B570B0E94AA
:10362000A91A02C00E94611ACE01DF91CF910895BC
:10363000EF92FF920F931F93CF93DF93EC017B01E7
:103640000C811D816115710511F480E016C04115D2
:10365000510591F0040F151FB8010E948D1A88239F
:10366000A1F3288139818C819D81B701820F931F3D
:103670000E945C201D830C8381E0DF91CF911F911C
:103680000F91FF90EF900895CF93DF9300D0CDB7C7
:10369000DEB769831A8241E050E0BE016F5F7F4F61
:1036A0000E94181B0F900F90DF91CF910895CF9338
:1036B000DF93EC01FB0144815581608171810E949F
:1036C000181B811103C0CE010E94611ACE01DF9147
:1036D000CF910895CF93DF93EC016115710569F0E7
:1036E000FB0101900020E9F7AF0141505109461B51
:1036F000570B0E94181B811103C0CE010E94611A52
:10370000CE01DF91CF910895CF93DF93FC018481A7
:1037100095814817590778F4C081D181FB016081F8
:103720007181CE01840F951F0E946320009719F0CC
:103730008C1B9D0B02C08FEF9FEFDF91CF910895FF
:1037400040E050E00C94841BBF92CF92DF92EF9246
:10375000FF920F931F93CF93DF936C017B01EA01DC
:1037600089012417350720F48D2FE901042F182F24
:1037700060E272E0C6010E94CA1AD70114968D91C8
:103780009C911597C817D907C8F48017910708F4BA
:103790008C01D701ED91FC911197E00FF11FB080E2
:1037A00010826D917C916C0F7D1FC6010E94001BE1
:1037B000D701ED91FC91E00FF11FB082C601DF91BE
:1037C000CF911F910F91FF90EF90DF90CF90BF901E
:1037D0000895FC0180819181009711F00C942C20B8
:1037E00060E070E0CB0108955058BB27AA270ED0A7
:1037F00075C166D130F06BD120F031F49F3F11F4E8
:103800001EF45BC10EF4E095E7FB51C1E92F77D1BF
:1038100080F3BA17620773078407950718F071F4ED
:103820009EF58FC10EF4E0950B2EBA2FA02D0B0143
:10383000B90190010C01CA01A0011124FF27591BF5
:1038400099F0593F50F4503E68F11A16F040A22FFB
:10385000232F342F4427585FF3CF4695379527956C
:10386000A795F0405395C9F77EF41F16BA0B620B6B
:10387000730B840BBAF09150A1F0FF0FBB1F661FB2
:10388000771F881FC2F70EC0BA0F621F731F841FF5
:1038900048F4879577956795B795F7959E3F08F01B
:1038A000B3CF9395880F08F09927EE0F97958795DA
:1038B0000895D9D008F481E008950CD00FC107D144
:1038C00040F0FED030F021F45F3F19F0F0C051110C
:1038D00039C1F3C014D198F39923C9F35523B1F337
:1038E000951B550BBB27AA2762177307840738F06F
:1038F0009F5F5F4F220F331F441FAA1FA9F333D0CE
:103900000E2E3AF0E0E830D091505040E695001C81
:10391000CAF729D0FE2F27D0660F771F881FBB1F3D
:10392000261737074807AB07B0E809F0BB0B802D17
:10393000BF01FF2793585F4F2AF09E3F510568F063
:10394000B6C000C15F3FECF3983EDCF386957795F7
:103950006795B795F7959F5FC9F7880F911D969565
:10396000879597F90895E1E0660F771F881FBB1FC1
:10397000621773078407BA0720F0621B730B840B6E
:10398000BA0BEE1F88F7E095089504D06894B11142
:10399000D9C00895BCD088F09F5790F0B92F9927CF
:1039A000B751A0F0D1F0660F771F881F991F1AF04A
:1039B000BA95C9F712C0B13081F0C3D0B1E0089513
:1039C000C0C0672F782F8827B85F39F0B93FCCF394
:1039D000869577956795B395D9F73EF49095809540
:1039E000709561957F4F8F4F9F4F0895E89409C060
:1039F00097FB3EF490958095709561957F4F8F4F22
:103A00009F4F9923A9F0F92F96E9BB279395F69537
:103A1000879577956795B795F111F8CFFAF4BB0FB5
:103A200011F460FF1BC06F5F7F4F8F4F9F4F16C019
:103A3000882311F096E911C0772321F09EE8872FA3
:103A4000762F05C0662371F096E8862F70E060E05F
:103A50002AF09A95660F771F881FDAF7880F9695D8
:103A6000879597F90895990F0008550FAA0BE0E87C
:103A7000FEEF16161706E807F907C0F01216130630
:103A8000E407F50798F0621B730B840B950B39F470
:103A90000A2661F0232B242B252B21F408950A26D6
:103AA00009F4A140A6958FEF811D811D089597F916
:103AB0009F6780E870E060E008959FEF80EC0895D4
:103AC00000240A94161617061806090608950024FD
:103AD0000A9412161306140605060895092E039477
:103AE000000C11F4882352F0BB0F40F4BF2B11F4EB
:103AF00060FF04C06F5F7F4F8F4F9F4F089557FD4A
:103B00009058440F551F59F05F3F71F04795880F4B
:103B100097FB991F61F09F3F79F0879508951216E2
:103B200013061406551FF2CF4695F1DF08C016168E
:103B300017061806991FF1CF86957105610508943F
:103B40000895E894BB2766277727CB0197F9089556
:103B50008ADF08F48FEF08950BD0C0CFB1DF28F0D3
:103B6000B6DF18F0952309F0A2CFA7CF1124EACF32
:103B7000C6DFA0F3959FD1F3950F50E0551F629FCC
:103B8000F001729FBB27F00DB11D639FAA27F00DB6
:103B9000B11DAA1F649F6627B00DA11D661F829FDD
:103BA0002227B00DA11D621F739FB00DA11D621FC2
:103BB000839FA00D611D221F749F3327A00D611DDF
:103BC000231F849F600D211D822F762F6A2F1124C1
:103BD0009F5750408AF0E1F088234AF0EE0FFF1F14
:103BE000BB1F661F771F881F91505040A9F79E3F4B
:103BF000510570F05CCFA6CF5F3FECF3983EDCF34D
:103C0000869577956795B795F795E7959F5FC1F787
:103C1000FE2B880F911D9695879597F9089523DFC0
:103C2000880B990B0895A1E21A2EAA1BBB1BFD015C
:103C30000DC0AA1FBB1FEE1FFF1FA217B307E4078B
:103C4000F50720F0A21BB30BE40BF50B661F771FE3
:103C5000881F991F1A9469F76095709580959095C3
:103C60009B01AC01BD01CF010895EE0FFF1F059030
:103C7000F491E02D0994CF93DF938230910510F4F5
:103C800082E090E0E091D503F091D60320E030E0AF
:103C9000A0E0B0E0309739F14081518148175907D1
:103CA000B8F04817590771F482819381109729F071
:103CB00013969C938E9312972CC09093D603809367
:103CC000D50327C02115310531F04217530718F0ED
:103CD000A901DB0101C0EF019A01BD01DF010280F2
:103CE000F381E02DD7CF21153105F9F0281B390BD1
:103CF0002430310580F48A819B816115710521F0A2
:103D0000FB019383828304C09093D6038093D503F1
:103D1000FE01329644C0FE01E20FF31F819391939E
:103D200022503109398328833AC02091D30330913E
:103D3000D403232B41F420910201309103013093ED
:103D4000D4032093D3032091000130910101211568
:103D5000310541F42DB73EB7409104015091050162
:103D6000241B350BE091D303F091D403E217F30742
:103D7000A0F42E1B3F0B2817390778F0AC014E5FDB
:103D80005F4F2417350748F04E0F5F1F5093D40341
:103D90004093D3038193919302C0E0E0F0E0CF0120
:103DA000DF91CF910895CF93DF93009709F487C0F7
:103DB000FC01329713821282C091D503D091D603B1
:103DC000209781F420813181280F391F8091D303FE
:103DD0009091D4038217930779F5F093D403E0937D
:103DE000D3036DC0DE0120E030E0AE17BF0750F412
:103DF00012964D915C9113979D014115510509F162
:103E0000DA01F3CFB383A28340815181840F951FE0
:103E10008A179B0771F48D919C911197840F951FC0
:103E200002969183808312968D919C911397938330
:103E300082832115310529F4F093D603E093D5034D
:103E40003EC0D9011396FC93EE9312974D915D916C
:103E5000A40FB51FEA17FB0779F480819181840FC5
:103E6000951F0296D90111969C938E93828193811E
:103E700013969C938E931297E0E0F0E08A819B81E9
:103E8000009719F0FE01EC01F9CFCE0102962881CE
:103E90003981820F931F2091D3033091D4032817C7
:103EA000390769F4309729F41092D6031092D5039C
:103EB00002C013821282D093D403C093D303DF9144
:103EC000CF910895A0E0B0E0E8E6FFE10C949620E1
:103ED000EC01CB01209719F40E943B1EB8C0FE01F3
:103EE000E60FF71F9E0122503109E217F30708F48D
:103EF000ACC0D9010D911C91119706171707B8F0A6
:103F00000530110508F49FC0A80144505109461717
:103F1000570708F498C002501109061B170B0193AC
:103F200011936D937C93CF010E94D31E8CC05B01D3
:103F3000A01AB10A4E01800E911EA091D503B09136
:103F4000D603612C712C60E070E0109709F449C031
:103F5000A815B905C9F5ED90FC901197670142E0ED
:103F6000C40ED11CCA14DB0478F147018A189B08DF
:103F7000640142E0C40ED11C1296BC9012971396B5
:103F8000AC91B5E0CB16D10440F0B282A38391820C
:103F90008082D9018D939C9309C00E5F1F4F0E0D37
:103FA0001F1DF90111830083EB2DFA2F6115710597
:103FB00031F0DB011396FC93EE93129744C0F0931B
:103FC000D603E093D5033FC06D917C91119766169F
:103FD000770608F43B01BD0112960D90BC91A02D0F
:103FE000B4CF6091D3037091D40368157905E9F4D7
:103FF00068167906D0F440910001509101014115F5
:10400000510541F44DB75EB760910401709105010F
:10401000461B570BE417F507C0F4F093D403E09365
:10402000D303F901918380830EC00E943B1E7C0163
:10403000009759F0A801BE010E945320CE010E94B2
:10404000D31EC70104C0CE0102C080E090E0CDB70E
:10405000DEB7EEE00C94B2201F93FC01992788276D
:10406000BC01E89411911032E9F3193010F01E30C0
:10407000C8F31B3251F01D3249F4689406C00E9407
:104080007D20610F711D811D911D119110531A30FA
:10409000B0F33EF490958095709561957F4F8F4F6A
:1040A0009F4F1F910895FB01DC0102C001900D920A
:1040B00041505040D8F70895FB01DC0101900D926A
:1040C0000020E1F70895FB0151915523A9F0BF01AC
:1040D000DC014D9145174111E1F759F4CD010190F3
:1040E000002049F04D9140154111C9F3FB014111E8
:1040F000EFCF81E090E001970895592F482F372F97
:10410000262F660F771F881F991F660F771F881F3E
:10411000991F620F731F841F951F660F771F881FDB
:10412000991F08952F923F924F925F926F927F92C4
:104130008F929F92AF92BF92CF92DF92EF92FF92B7
:104140000F931F93CF93DF93CDB7DEB7CA1BDB0B63
:104150000FB6F894DEBF0FBECDBF09942A88398808
:1041600048885F846E847D848C849B84AA84B9840F
:10417000C884DF80EE80FD800C811B81AA81B9811B
:10418000CE0FD11D0FB6F894DEBF0FBECDBFED012F
:10419000089510E0CAECD0E004C0FE010E94371E72
:0C41A0002296CC3CD107C9F7F894FFCF61
:1041AC000000D703800001000000FFFFFF00C0A843
:1041BC006401C0A864B1DEADBEEFFEED00C0564D8B
:1041CC004450565F317C315F564D4450560D0A00B9
:1041DC00485454502F312E3120323030204F4B0068
:1041EC00436F6E74656E742D547970653A207465E6
:1041FC0078742F68746D6C003C626F64793E003C7F
:10420C0068313E4F757470757420646174613C2F15
:10421C0068313E003C666F6E742073697A653D2789
:10422C0035273E446174613A20003C6272202F3E77
:10423C000075703D0026646E3D00230055703A20D9
:10424C0000446F776E3A20003C2F666F6E743E0010
:10425C003C2F626F64793E3C2F68746D6C3E00009D
:10426C000000000D0736075007590777079A071605
:10427C00089E0773077308AD082307FE0601072B7A
:10428C0007030700000000DC08A209F20800000088
:10429C0000910ADA0A8D0AEE0A340BA70A4D0BB903
:1042AC000ACE0ADF0BD60A7A0B170B720A790A8927
:1042BC000A564D4450435F005F564D4450430D0A1F
:1042CC00004572726F723A20417474656D7074207F
:1042DC00746F20736574206120726561642D6F6E3C
:1042EC006C79207661726961626C65206F722064F2
:1042FC006174612074797065206E6F7420737570B1
:10430C00706F727465640D0A000000000035162B86
:10431C0018B715D015C215131600000000A1176EA2
:0E432C00616E00696E66006F7666002E0000FE
:00000001FF
